{
  "abi": [
    {
      "inputs": [
        {
          "internalType": "address",
          "name": "plonkVerifierAddress",
          "type": "address"
        }
      ],
      "stateMutability": "nonpayable",
      "type": "constructor"
    },
    {
      "anonymous": false,
      "inputs": [
        {
          "indexed": false,
          "internalType": "bool",
          "name": "result",
          "type": "bool"
        }
      ],
      "name": "ProofResult",
      "type": "event"
    },
    {
      "inputs": [],
      "name": "s_plonkVerifierAddress",
      "outputs": [
        {
          "internalType": "address",
          "name": "",
          "type": "address"
        }
      ],
      "stateMutability": "view",
      "type": "function"
    },
    {
      "inputs": [
        {
          "internalType": "bytes",
          "name": "proof",
          "type": "bytes"
        },
        {
          "internalType": "uint256[]",
          "name": "pubSignals",
          "type": "uint256[]"
        }
      ],
      "name": "submitProof",
      "outputs": [
        {
          "internalType": "bool",
          "name": "",
          "type": "bool"
        }
      ],
      "stateMutability": "nonpayable",
      "type": "function"
    }
  ],
  "bytecode": {
    "object": "0x608060405234801561001057600080fd5b5060405161044c38038061044c83398101604081905261002f91610054565b600080546001600160a01b0319166001600160a01b0392909216919091179055610084565b60006020828403121561006657600080fd5b81516001600160a01b038116811461007d57600080fd5b9392505050565b6103b9806100936000396000f3fe608060405234801561001057600080fd5b50600436106100355760003560e01c8062c80d811461003a57806344896a9a14610062575b600080fd5b61004d61004836600461020c565b61008d565b60405190151581526020015b60405180910390f35b600054610075906001600160a01b031681565b6040516001600160a01b039091168152602001610059565b60008054604051631e8e1e1360e01b815282916001600160a01b031690631e8e1e13906100c090879087906004016102c4565b602060405180830381865afa1580156100dd573d6000803e3d6000fd5b505050506040513d601f19601f82011682018060405250810190610101919061035a565b90507fb6030296ed6d28f593d0c257c080ef243cd60eb419e82d45d9e530c59391510281604051610136911515815260200190565b60405180910390a19392505050565b634e487b7160e01b600052604160045260246000fd5b604051601f8201601f1916810167ffffffffffffffff8111828210171561018457610184610145565b604052919050565b600082601f83011261019d57600080fd5b8135602067ffffffffffffffff8211156101b9576101b9610145565b8160051b6101c882820161015b565b92835284810182019282810190878511156101e257600080fd5b83870192505b84831015610201578235825291830191908301906101e8565b979650505050505050565b6000806040838503121561021f57600080fd5b823567ffffffffffffffff8082111561023757600080fd5b818501915085601f83011261024b57600080fd5b813560208282111561025f5761025f610145565b610271601f8301601f1916820161015b565b828152888284870101111561028557600080fd5b828286018383013760009281018201929092529094508501359150808211156102ad57600080fd5b506102ba8582860161018c565b9150509250929050565b604081526000835180604084015260005b818110156102f257602081870181015160608684010152016102d5565b50600060608285010152601f19601f82011683019050606081016020606085840301818601528186518084526080850191508288019450600093505b8084101561034e578451825293820193600193909301929082019061032e565b50979650505050505050565b60006020828403121561036c57600080fd5b8151801515811461037c57600080fd5b939250505056fea2646970667358221220ed422c36f943a88fbf8c5909c5486ac586e1b652592bc722aa62c7a5dd99e25c64736f6c63430008110033",
    "linkReferences": {}
  },
  "methodIdentifiers": {
    "s_plonkVerifierAddress()": "44896a9a",
    "submitProof(bytes,uint256[])": "00c80d81"
  },
  "id": 14
}